{
  "_format": "hh3-artifact-1",
  "contractName": "ExampleRecipient",
  "sourceName": "contracts/ExampleRecipient.sol",
  "abi": [
    {
      "inputs": [
        {
          "internalType": "address",
          "name": "trustedForwarder",
          "type": "address"
        }
      ],
      "stateMutability": "nonpayable",
      "type": "constructor"
    },
    {
      "anonymous": false,
      "inputs": [
        {
          "indexed": true,
          "internalType": "address",
          "name": "user",
          "type": "address"
        },
        {
          "indexed": false,
          "internalType": "uint256",
          "name": "newValue",
          "type": "uint256"
        }
      ],
      "name": "CounterIncremented",
      "type": "event"
    },
    {
      "inputs": [
        {
          "internalType": "address",
          "name": "user",
          "type": "address"
        }
      ],
      "name": "getCounter",
      "outputs": [
        {
          "internalType": "uint256",
          "name": "",
          "type": "uint256"
        }
      ],
      "stateMutability": "view",
      "type": "function"
    },
    {
      "inputs": [],
      "name": "incrementCounter",
      "outputs": [],
      "stateMutability": "nonpayable",
      "type": "function"
    },
    {
      "inputs": [
        {
          "internalType": "address",
          "name": "forwarder",
          "type": "address"
        }
      ],
      "name": "isTrustedForwarder",
      "outputs": [
        {
          "internalType": "bool",
          "name": "",
          "type": "bool"
        }
      ],
      "stateMutability": "view",
      "type": "function"
    },
    {
      "inputs": [
        {
          "internalType": "address",
          "name": "",
          "type": "address"
        }
      ],
      "name": "userCounters",
      "outputs": [
        {
          "internalType": "uint256",
          "name": "",
          "type": "uint256"
        }
      ],
      "stateMutability": "view",
      "type": "function"
    }
  ],
  "bytecode": "0x60a0604052348015600e575f5ffd5b506040516102ee3803806102ee833981016040819052602b91603b565b6001600160a01b03166080526066565b5f60208284031215604a575f5ffd5b81516001600160a01b0381168114605f575f5ffd5b9392505050565b60805161026a6100845f395f818160900152610194015261026a5ff3fe608060405234801561000f575f5ffd5b506004361061004a575f3560e01c80634e8460331461004e578063572b6c05146100805780635b34b966146100d0578063f07ec373146100da575b5f5ffd5b61006d61005c3660046101e2565b5f6020819052908152604090205481565b6040519081526020015b60405180910390f35b6100c061008e3660046101e2565b7f00000000000000000000000000000000000000000000000000000000000000006001600160a01b0390811691161490565b6040519015158152602001610077565b6100d8610102565b005b61006d6100e83660046101e2565b6001600160a01b03165f9081526020819052604090205490565b5f61010b610191565b905060015f5f836001600160a01b03166001600160a01b031681526020019081526020015f205f82825461013f919061020f565b90915550506001600160a01b0381165f81815260208181526040918290205491519182527f59950fb23669ee30425f6d79758e75fae698a6c88b2982f2980638d8bcd9397d910160405180910390a250565b5f7f00000000000000000000000000000000000000000000000000000000000000006001600160a01b0316331480156101cb575060143610155b156101dd575060131936013560601c90565b503390565b5f602082840312156101f2575f5ffd5b81356001600160a01b0381168114610208575f5ffd5b9392505050565b8082018082111561022e57634e487b7160e01b5f52601160045260245ffd5b9291505056fea2646970667358221220a9146a8afce93c451b4a1c507f63f7a400cd3e30f032e64a862dce822394097964736f6c634300081c0033",
  "linkReferences": {},
  "deployedLinkReferences": {},
  "immutableReferences": {
    "8": [
      {
        "length": 32,
        "start": 144
      },
      {
        "length": 32,
        "start": 404
      }
    ]
  },
  "inputSourceName": "project/contracts/ExampleRecipient.sol",
  "buildInfoId": "solc-0_8_28-8b7b0e11a4977a696e55c8e70b8ca6bb16ffb207"
}